:04000000D6EF0CF03B
:10100000003738392F3435362A3132332D23303DED
:101010002B456D626564646564204469706C6F6D16
:101020006100202020202020202020202020004897
:10103000656C6C6F20416C6C004C6F6164696E670D
:0510400000256900001D
:10104600010E366E3050D8B42BEF08F02DEF08F0B5
:101056003DEF08F03050D96EDA6ADF30E832E83218
:10106600070B316E070E31643BEF08F03DEF08F0D9
:1010760094EF08F0000E366EAAEF08F03050D96EE5
:10108600DA6ADF30E832E832070B316E010E326E73
:10109600312A50EF08F0D8903236312E4EEF08F054
:1010A6003250FF0A336E3050D96EDA6ADF50070BC2
:1010B600020DF350150FD96EDA6ADECF34F0DDCFAC
:1010C60035F034C0D9FF35C0DAFF3350DF16AAEF4A
:1010D60008F03050D96EDA6ADF30E832E832070BB2
:1010E600316E010E326E312A7BEF08F0D89032361F
:1010F600312E79EF08F03050D96EDA6ADF50070BDF
:10110600020DF350150FD96EDA6ADECF33F0DDCF5C
:1011160034F033C0D9FF34C0DAFF3250DF12AAEF01
:1011260008F03050D96EDA6ADFBC9CEF08F09FEF0A
:1011360008F0010EA0EF08F0000E000AD8B441EF47
:1011460008F0010AD8B46CEF08F03DEF08F036500D
:101156001200010E376E3050D8B4B4EF08F0B6EF77
:1011660008F0C6EF08F03050D96EDA6ADF30E832A0
:10117600E832070B326E070E3264C4EF08F0C6EF92
:1011860008F01DEF09F0000E376E32EF09F030500F
:10119600D96EDA6ADF30E832E832070B326E010EBA
:1011A600336E322AD9EF08F0D8903336322ED7EF85
:1011B60008F03350FF0A346E3050D96EDA6ADF50C9
:1011C600070B020DF3500B0FD96EDA6ADECF35F03E
:1011D600DDCF36F035C0D9FF36C0DAFF3450DF1622
:1011E60032EF09F03050D96EDA6ADF30E832E83291
:1011F600070B326E010E336E322A04EF09F0D890D7
:101206003336322E02EF09F03050D96EDA6ADF50EB
:10121600070B020DF3500B0FD96EDA6ADECF34F0EE
:10122600DDCF35F034C0D9FF35C0DAFF3350DF12D9
:1012360032EF09F03150326E336A3350000AD8B4B7
:1012460027EF09F0C6EF08F03250000AD8B4CAEF0B
:1012560008F0010AD8B4F5EF08F0C6EF08F03750E9
:101266001200000E436E4050D8A43CEF09F03EEF4A
:1012760009F042EF09F0000E446EAEEF09F040C0EF
:1012860038F0EFEC0BF0446E4028386EEFEC0BF0C4
:10129600446E000E436E40504324020F386EEFEC4E
:1012A6000BF0432A070E43645BEF09F05DEF09F08C
:1012B6004EEF09F0340E416EF20EE82EFED7412EA7
:1012C600FCD740C03AF0380E3B6EB5EC0AF00D0E76
:1012D600416EFC0EE82EFED7412EFCD740C03AF0F8
:1012E600380E3B6EB5EC0AF0020E426E860E416E6B
:1012F600990EE82EFED7412EFCD7422EFAD70000D3
:1013060040C03AF0380E3B6EB5EC0AF040C03AF0F9
:10131600010E3B6EB5EC0AF040C03AF0020E3B6E91
:10132600B5EC0AF040C03AF0060E3B6EB5EC0AF09A
:1013360040C03AF00C0E3B6EB5EC0AF040C03AF0F5
:10134600380E3B6EB5EC0AF040C03AF0800E3B6EAC
:10135600B5EC0AF0446E44501200000E416E3E5049
:10136600D8A4B8EF09F0BAEF09F0BEEF09F0000E05
:10137600426E2AEF0AF03EC038F0EFEC0BF0426EF8
:101386003E28386EEFEC0BF0426E000E416E3E507A
:101396004124020F386EEFEC0BF0412A030E416434
:1013A600D7EF09F0D9EF09F0CAEF09F0340E3F6E16
:1013B600F20EE82EFED73F2EFCD73EC03BF0380E8D
:1013C6003C6E4CEC0CF00D0E3F6EFC0EE82EFED77C
:1013D6003F2EFCD73EC03BF0380E3C6E4CEC0CF07A
:1013E600020E406E860E3F6E990EE82EFED73F2EF9
:1013F600FCD7402EFAD700003EC03BF0380E3C6EBC
:101406004CEC0CF03EC03BF0010E3C6E4CEC0CF08C
:101416003EC03BF0020E3C6E4CEC0CF03EC03BF086
:10142600060E3C6E4CEC0CF03EC03BF00C0E3C6ED7
:101436004CEC0CF03EC03BF0280E3C6E4CEC0CF035
:101446003EC03BF0800E3C6E4CEC0CF0426E4250BF
:10145600120012EC0DF02A0E426E020E436E010EC1
:10146600446E110E456E5BEC0BF0200E446E010EC1
:10147600456E010E466E390E476E27EC0BF0000ED8
:10148600566E2A0E426E010E436E56C044F02F0E63
:10149600456E5BEC0BF0030E4A6E8A0E496E560ED5
:1014A600E82EFED7492EFCD74A2EFAD72A0E426ED0
:1014B600010E436E56C044F0200E456EB8EC0CF09B
:1014C600562A070E56646AEF0AF06CEF0AF044EFEC
:1014D6000AF02A0E426E010E436E050E446E220E6F
:1014E600456E5BEC0BF042EF0AF000EF00F0000EE9
:1014F6003F6E3A50D8A482EF0AF084EF0AF088EFE4
:101506000AF0000E3E6EB3EF0AF03AC030F0010E5C
:10151600316EACEC08F0000E3F6E3A503F24020FDD
:10152600306E3FC03CF03BC03DF03C2A9DEF0AF0D8
:10153600D8903D323C2E9BEF0AF03D50010B316EA8
:10154600ACEC08F03F2A070E3F64ACEF0AF0AEEFB2
:101556000AF090EF0AF03AC038F07AEC0CF03E6EE2
:101566003E501200000E3F6E3A50D8A4BDEF0AF06E
:10157600BFEF0AF0C3EF0AF0000E3E6EEEEF0AF080
:101586003AC030F0000E316EACEC08F0000E3F6E43
:101596003A503F24020F306E3FC03CF03BC03DF056
:1015A6003C2AD8EF0AF0D8903D323C2ED6EF0AF00E
:1015B6003D50010B316EACEC08F03F2A070E3F643C
:1015C600E7EF0AF0E9EF0AF0CBEF0AF03AC038F09D
:1015D6007AEC0CF03E6E3E5012003850D8A4F6EF6E
:1015E6000AF0F8EF0AF0FCEF0AF0000E3A6E25EF6B
:1015F6000BF03850020F306E3950010B316EACECE7
:1016060008F03A6E3850030F306ED8903930010B1F
:10161600316EACEC08F03A6E3850040F306E39403B
:10162600E8423F0B010B316EACEC08F03A6E3850D5
:10163600050F306E3938E8461F0B010B316EACECE6
:1016460008F03A6E3A5012004450D8A42DEF0BF031
:101656002FEF0BF033EF0BF0000E486E59EF0BF047
:1016660044C040F045C041F046C042F08FEC0BF05C
:10167600486E4BEF0BF044C03AF047C0F6FF100E31
:10168600F76E0800F5CF3BF07AEC0AF0486E472A71
:1016960047C0F6FF100EF76E0800F5500009D8A4F3
:1016A60057EF0BF059EF0BF03EEF0BF048501200DE
:1016B6004250D8A461EF0BF063EF0BF067EF0BF02D
:1016C600000E466E8DEF0BF042C03EF043C03FF079
:1016D60044C040F0BFEC0BF0466E7FEF0BF042C00B
:1016E6003BF045C0F6FF100EF76E0800F5CF3CF054
:1016F6001EEC0CF0466E452A45C0F6FF100EF76E3E
:101706000800F5500009D8A48BEF0BF08DEF0BF015
:1017160072EF0BF046501200010E436E4050D8A4F3
:1017260097EF0BF099EF0BF09DEF0BF0000E436E69
:10173600BDEF0BF04206B2EF0BF040C03AF042505C
:10174600800F3B6EB5EC0AF0BDEF0BF040C03AF0EF
:101756004250C00F3B6EB5EC0AF0BDEF0BF04150A6
:10176600010AD8B4A0EF0BF0030AD8B4A9EF0BF026
:10177600BDEF0BF043501200010E416E3E50D8A44F
:10178600C7EF0BF0C9EF0BF0CDEF0BF0000E416E7B
:10179600EDEF0BF04006E2EF0BF03EC03BF04050A1
:1017A600800F3C6E4CEC0CF0EDEF0BF03EC03BF0C6
:1017B6004050C00F3C6E4CEC0CF0EDEF0BF03F5080
:1017C600010AD8B4D0EF0BF0030AD8B4D9EF0BF066
:1017D600EDEF0BF041501200010E3A6E3850D8B4BE
:1017E600F7EF0BF0F9EF0BF009EF0CF03850D96E6C
:1017F600DA6ADF30E832E832070B396E070E3964F1
:1018060007EF0CF009EF0CF00DEF0CF0000E3A6E3E
:101816001CEF0CF038C030F023EC08F038C030F084
:101826003850D96EDA6A000EDFBE010E316EACECAE
:1018360008F03A5012003B50D8A424EF0CF026EFE3
:101846000CF02AEF0CF0000E3D6E4AEF0CF03BC098
:1018560030F0010E316EACEC08F03D6E3BC038F056
:101866003C380F0B396EF0EC0AF03D6E3BC038F099
:1018760099EC0CF03D6E3BC038F03CC039F0F0EC12
:101886000AF03D6E3BC038F099EC0CF03D6E3D50D1
:1018960012003B50D8A452EF0CF054EF0CF058EF66
:1018A6000CF0000E3D6E78EF0CF03BC030F0000EF1
:1018B600316EACEC08F03D6E3BC038F03C380F0B97
:1018C600396EF0EC0AF03D6E3BC038F099EC0CF046
:1018D6003D6E3BC038F03CC039F0F0EC0AF03D6E8E
:1018E6003BC038F099EC0CF03D6E3D50120038507C
:1018F600D8A480EF0CF082EF0CF086EF0CF0000E0F
:10190600396E97EF0CF03828306E010E316EACEC64
:1019160008F0030EE82EFED700003828306E000EC1
:10192600316EACEC08F0396E395012003850D8A43C
:101936009FEF0CF0A1EF0CF0A5EF0CF0000E396E46
:10194600B6EF0CF03828306E010E316EACEC08F0B4
:10195600030EE82EFED700003828306E000E316EDA
:10196600ACEC08F0396E395012004250D8A4BEEFE4
:101976000CF0C0EF0CF0C4EF0CF0000E466ED4EF86
:101986000CF042C03EF043C03FF044C040F0BFEC14
:101996000BF0466E42C03BF045C03CF01EEC0CF02E
:1019A600466E46501200E20EF66E190EF76E000EE7
:1019B600F86E00EE01F010EE2FF00900F5CFEEFF05
:1019C600E550E150FAE100EE4BF00B0EEE6AE80648
:1019D600FDE1000EF86E00012CEF0AF0800F810F7A
:1019E600820F830F840F890F8A0F8B0F8C0F8D0F39
:1019F600920F930F940F950F960FF4323A030B1331
:0B1A06001B232B333B020A121A222A7A
:101A12002A0E3E6EB0EC09F0200E406E34EC09F056
:081A2200120009EC0DF01200A6
:020000040030CA
:0E000000FF021F1EFF8181FF0FC00FE00F40A7
:00000001FF
