:04000000C7EF0AF04C
:101000000000010E2C6E2650D8B409EF08F00BEF4B
:1010100008F01BEF08F02650D96EDA6ADF30E832AC
:10102000E832070B276E070E276419EF08F01BEF55
:1010300008F072EF08F0000E2C6E88EF08F02650D2
:10104000D96EDA6ADF30E832E832070B276E010E1C
:10105000286E272A2EEF08F0D8902836272E2CEF5E
:1010600008F02850FF0A296E2650D96EDA6ADF5040
:10107000070B020DF350150FD96EDA6ADECF2AF096
:10108000DDCF2BF02AC0D9FF2BC0DAFF2950DF16A5
:1010900088EF08F02650D96EDA6ADF30E832E8329D
:1010A000070B276E010E286E272A59EF08F0D890FB
:1010B0002836272E57EF08F02650D96EDA6ADF500F
:1010C000070B020DF350150FD96EDA6ADECF29F047
:1010D000DDCF2AF029C0D9FF2AC0DAFF2850DF125D
:1010E00088EF08F02650D96EDA6ADFBC7AEF08F094
:1010F0007DEF08F0010E7EEF08F0000E000AD8B474
:101100001FEF08F0010AD8B44AEF08F01BEF08F00F
:101110002C501200010E2D6E2650D8B492EF08F01C
:1011200094EF08F0A4EF08F02650D96EDA6ADF30A9
:10113000E832E832070B286E070E2864A2EF08F0A9
:10114000A4EF08F0FBEF08F0000E2D6E10EF09F091
:101150002650D96EDA6ADF30E832E832070B286EA3
:10116000010E296E282AB7EF08F0D8902936282ECC
:10117000B5EF08F02950FF0A2A6E2650D96EDA6AB8
:10118000DF50070B020DF3500B0FD96EDA6ADECF7A
:101190002BF0DDCF2CF02BC0D9FF2CC0DAFF2A506A
:1011A000DF1610EF09F02650D96EDA6ADF30E83228
:1011B000E832070B286E010E296E282AE2EF08F0AC
:1011C000D8902936282EE0EF08F02650D96EDA6A3A
:1011D000DF50070B020DF3500B0FD96EDA6ADECF2A
:1011E0002AF0DDCF2BF02AC0D9FF2BC0DAFF29501F
:1011F000DF1210EF09F02750286E296A2950000AE3
:10120000D8B405EF09F0A4EF08F02850000AD8B4CC
:10121000A8EF08F0010AD8B4D3EF08F0A4EF08F063
:101220002D501200F5EC0AF0000E3C6E1F0E2E6ED3
:1012300034C026F0276A000E296E0A0E286EDFECF5
:1012400009F026502F6E37EC0AF03D6E240E266E04
:10125000010E276E8AEC08F03D6E1A0E336EF80E02
:10126000E82EFED7332EFCD700F000F0240E266EB9
:10127000000E276E8AEC08F03D6E1F0E2E6E34C0F5
:1012800026F0276A000E296E0A0E286E7DEC09F002
:1012900026502F6E37EC0AF03D6E250E266E010E9D
:1012A000276E8AEC08F03D6E1A0E336EF80EE82EAB
:1012B000FED7332EFCD700F000F0250E266E000E70
:1012C000276E8AEC08F03D6E3C2A320E3C646BEFD0
:1012D00009F06DEF09F016EF09F0342A320E3418D8
:1012E000D8A475EF09F077EF09F014EF09F0000EBC
:1012F000346E14EF09F000EF00F0000E2B6E29BEE3
:1013000086EF09F084EF09F08CEF09F0286C291EB4
:10131000D8B0292A010E2B6E27BE93EF09F091EF6A
:1013200009F099EF09F0266C271ED8B0272A010E84
:101330002B1A000E2D6E000E2C6E28502910D8B4DA
:10134000A4EF09F0A6EF09F0CEEF09F0010E2A6E26
:10135000AEEF09F0D890283629362A2A29AEB3EF05
:1013600009F0B5EF09F0AAEF09F0D8902C362D3628
:101370002850265C29502758D8A0C1EF09F0C3EFA8
:1013800009F0C8EF09F02850265E2950275A2C8012
:10139000D890293228322A2EB5EF09F02B50D8B434
:1013A000D4EF09F0D6EF09F0DAEF09F02C6C2D1E1E
:1013B000D8B02D2A2CC026F02DC027F01200000E28
:1013C0002B6E27BEE8EF09F0E6EF09F0EEEF09F02B
:1013D000266C271ED8B0272A010E2B6E29BEF5EFEA
:1013E00009F0F3EF09F0F9EF09F0286C291ED8B0E5
:1013F000292A28502910D8B400EF0AF002EF0AF089
:1014000026EF0AF0010E2A6E0AEF0AF0D89028366D
:1014100029362A2A29AE0FEF0AF011EF0AF006EF5B
:101420000AF02850265C29502758D8A01AEF0AF055
:101430001CEF0AF020EF0AF02850265E2950275AA8
:10144000D890293228322A2E11EF0AF02B50D8B426
:101450002CEF0AF02EEF0AF032EF0AF0266C271E6E
:10146000D8B0272A26C026F027C027F012002E5019
:10147000D8A43DEF0AF03FEF0AF04BEF0AF0090E57
:101480002F6445EF0AF047EF0AF04BEF0AF0000E29
:10149000306E72EF0AF02EC026F02F50010B276E2F
:1014A0008AEC08F0306E2E28266ED8902F30010B73
:1014B000276E8AEC08F0306E2E50020F266E2F40F9
:1014C000E8423F0B010B276E8AEC08F0306E2E507D
:1014D000030F266E2F38E8461F0B010B276E8AEC90
:1014E00008F0306E30501200010E306E2E50D8B41D
:1014F0007CEF0AF07EEF0AF08EEF0AF02E50D96EE4
:10150000DA6ADF30E832E832070B2F6E070E2F64FD
:101510008CEF0AF08EEF0AF092EF0AF0000E306EB8
:10152000A1EF0AF02EC026F001EC08F02EC026F044
:101530002E50D96EDA6A000EDFBE010E276E8AECDD
:1015400008F0305012003150D8A4A9EF0AF0ABEFE8
:101550000AF0AFEF0AF0000E326EC5EF0AF031C0AC
:101560002EF074EC0AF0326E31282E6E74EC0AF014
:10157000326E3150020F2E6E74EC0AF0326E315022
:10158000030F2E6E74EC0AF0326E32501200C40E4D
:10159000F66E150EF76E000EF86E00EE01F010EE0E
:1015A00025F00900F5CFEEFFE550E150FAE100EE3D
:1015B00034F0080EEE6AE806FDE1000EF86E000158
:1015C00012EF09F0800F810F820F830F840F890FB4
:1015D0008A0F8B0F8C0F8D0F920F930F940F950F17
:0915E000960F020A121A000B0317
:1015EA001F0E316EA3EC0AF03D6E250E2E6E74ECC2
:1015FA000AF03D6E240E2E6E74EC0AF03D6E120057
:020000040030CA
:0E000000FF021F1EFF8181FF0FC00FE00F40A7
:00000001FF
