:04000000F2EF09F022
:101000000000010E2A6E2450D8B409EF08F00BEF4F
:1010100008F01BEF08F02450D96EDA6ADF30E832AE
:10102000E832070B256E070E256419EF08F01BEF59
:1010300008F072EF08F0000E2A6E88EF08F02450D6
:10104000D96EDA6ADF30E832E832070B256E010E1E
:10105000266E252A2EEF08F0D8902636252E2CEF66
:1010600008F02650FF0A276E2450D96EDA6ADF5046
:10107000070B020DF350150FD96EDA6ADECF28F098
:10108000DDCF29F028C0D9FF29C0DAFF2750DF16AD
:1010900088EF08F02450D96EDA6ADF30E832E8329F
:1010A000070B256E010E266E252A59EF08F0D89001
:1010B0002636252E57EF08F02450D96EDA6ADF5015
:1010C000070B020DF350150FD96EDA6ADECF27F049
:1010D000DDCF28F027C0D9FF28C0DAFF2650DF1265
:1010E00088EF08F02450D96EDA6ADFBC7AEF08F096
:1010F0007DEF08F0010E7EEF08F0000E000AD8B474
:101100001FEF08F0010AD8B44AEF08F01BEF08F00F
:101110002A501200010E2B6E2450D8B492EF08F022
:1011200094EF08F0A4EF08F02450D96EDA6ADF30AB
:10113000E832E832070B266E070E2664A2EF08F0AD
:10114000A4EF08F0FBEF08F0000E2B6E10EF09F093
:101150002450D96EDA6ADF30E832E832070B266EA7
:10116000010E276E262AB7EF08F0D8902736262ED4
:10117000B5EF08F02750FF0A286E2450D96EDA6ABE
:10118000DF50070B020DF3500B0FD96EDA6ADECF7A
:1011900029F0DDCF2AF029C0D9FF2AC0DAFF285074
:1011A000DF1610EF09F02450D96EDA6ADF30E8322A
:1011B000E832070B266E010E276E262AE2EF08F0B2
:1011C000D8902736262EE0EF08F02450D96EDA6A40
:1011D000DF50070B020DF3500B0FD96EDA6ADECF2A
:1011E00028F0DDCF29F028C0D9FF29C0DAFF275029
:1011F000DF1210EF09F02550266E276A2750000AEB
:10120000D8B405EF09F0A4EF08F02650000AD8B4CE
:10121000A8EF08F0010AD8B4D3EF08F0A4EF08F063
:101220002B50120032EC0AF0220E2C6EBAEC09F0B0
:101230001F6E200E2C6EBAEC09F01F6E150E306E6C
:101240004B0E2F6EBE0EE82EFED72F2EFCD7302E63
:10125000FAD700F000F0220E2C6E9EEC09F01F6E03
:10126000200E2C6E9EEC09F01F6E150E306E4B0E8C
:101270002F6EBE0EE82EFED72F2EFCD7302EFAD7BB
:1012800000F000F0220E2C6ED6EC09F01F6E200E3E
:101290002C6ED6EC09F01F6E150E306E4B0E2F6EB5
:1012A000BE0EE82EFED72F2EFCD7302EFAD700F038
:1012B00000F0220E2C6E9EEC09F01F6E200E2C6E9C
:1012C0009EEC09F01F6E150E306E4B0E2F6EBE0E8B
:1012D000E82EFED72F2EFCD7302EFAD700F000F0E4
:1012E00014EF09F000EF00F02C50D8B47AEF09F0B9
:1012F0007CEF09F08CEF09F02C50D96EDA6ADF3000
:10130000E832E832070B2D6E070E2D648AEF09F0E4
:101310008CEF09F08EEF09F09DEF09F02CC024F05E
:1013200001EC08F02CC024F02C50D96EDA6A000EC3
:10133000DFBE010E256E8AEC08F01200010E2D6E44
:101340002C50D8A4A6EF09F0A8EF09F0ACEF09F0F3
:10135000000E2D6EB8EF09F02CC024F0000E256EA3
:101360008AEC08F02C28246E000E256E8AEC08F01A
:101370002D501200010E2D6E2C50D8A4C2EF09F092
:10138000C4EF09F0C8EF09F0000E2D6ED4EF09F09C
:101390002CC024F0010E256E8AEC08F02C28246E57
:1013A000000E256E8AEC08F02D501200010E2D6EF5
:1013B0002C50D8A4DEEF09F0E0EF09F0E4EF09F0DB
:1013C000000E2D6EF0EF09F02CC024F0000E256EFB
:1013D0008AEC08F02C28246E010E256E8AEC08F0A9
:1013E0002D501200400EF66E140EF76E000EF86EC1
:1013F00000EE01F010EE23F00900F5CFEEFFE5500E
:10140000E150FAE100EE31F0070EEE6AE806FDE188
:10141000000EF86E000112EF09F02E50D8A413EF61
:101420000AF015EF0AF017EF0AF01FEF0AF02EC0CE
:101430002CF074EC09F02E282C6E74EC09F01200DC
:10144000800F810F820F830F840F890F8A0F8B0FFC
:101450008C0F8D0F920F930F940F950F960F011213
:031460001A020A63
:10146400220E2E6E0DEC0AF0200E2E6E0DEC0AF0FC
:02147400120064
:020000040030CA
:0E000000FF021F1EFF8181FF0FC00FE00F40A7
:00000001FF
