:040000008FEF0BF083
:10100000000032EC0BF0260E376E490E386EEAEC1B
:1010100009F04A6E230E376E480E386EEAEC09F07E
:101020004A6E4950D8A417EF08F019EF08F02AEFDC
:1010300008F0414A422AF50E415C010E4258D8A000
:1010400024EF08F026EF08F030EF08F0000E226ED3
:1010500030EF08F0000E426E000E416E010E226E5F
:1010600021502218D8B437EF08F039EF08F081EF9B
:1010700008F022C021F02250D8A441EF08F043EF3D
:1010800008F05FEF08F04350D8A449EF08F04BEFA9
:1010900008F05FEF08F0300E396EC8EC0AF02F0E42
:1010A000396EC8EC0AF02E0E396EC8EC0AF02D0E1F
:1010B000396EC8EC0AF0010E436E81EF08F0225041
:1010C000D8A465EF08F067EF08F081EF08F043045B
:1010D000D8A46DEF08F06FEF08F081EF08F0300E44
:1010E000396EFDEC0AF02F0E396EFDEC0AF02E0E73
:1010F000396EFDEC0AF02D0E396EFDEC0AF0000E93
:10110000436E4850D8A487EF08F089EF08F09AEFB3
:1011100008F03F4A402A405009E1C90E3F5CD8A080
:1011200094EF08F096EF08F0A0EF08F0000E206EA4
:10113000A0EF08F0000E406E000E3F6E010E206E14
:101140001F502018D8B4A7EF08F0A9EF08F003EF5C
:1011500008F020C01FF02050D8A4B1EF08F0B3EF82
:1011600008F0C5EF08F02C0E396EC8EC0AF02B0E13
:10117000396EC8EC0AF02A0E396EC8EC0AF0290E56
:10118000396EC8EC0AF003EF08F02C0E396EFDEC56
:101190000AF02B0E396EFDEC0AF02A0E396EFDECCA
:1011A0000AF0290E396EFDEC0AF003EF08F000EFAB
:1011B00000F0010E376E3150D8B4E1EF08F0E3EFE4
:1011C00008F0F3EF08F03150D96EDA6ADF30E83218
:1011D000E832070B326E070E3264F1EF08F0F3EFDE
:1011E00008F04AEF09F0000E376E60EF09F0315059
:1011F000D96EDA6ADF30E832E832070B326E010E60
:10120000336E322A06EF09F0D8903336322E04EFCF
:1012100009F03350FF0A346E3150D96EDA6ADF506C
:10122000070B020DF350150FD96EDA6ADECF35F0D9
:10123000DDCF36F035C0D9FF36C0DAFF3450DF16C7
:1012400060EF09F03150D96EDA6ADF30E832E83207
:10125000070B326E010E336E322A31EF09F0D8904F
:101260003336322E2FEF09F03150D96EDA6ADF5063
:10127000070B020DF350150FD96EDA6ADECF34F08A
:10128000DDCF35F034C0D9FF35C0DAFF3350DF127F
:1012900060EF09F03150D96EDA6ADFBC52EF09F025
:1012A00055EF09F0010E56EF09F0000E000AD8B410
:1012B000F7EF08F0010AD8B422EF09F0F3EF08F0D5
:1012C00037501200010E386E3150D8B46AEF09F071
:1012D0006CEF09F07CEF09F03150D96EDA6ADF303B
:1012E000E832E832070B336E070E33647AEF09F009
:1012F0007CEF09F0D3EF09F0000E386EE8EF09F04B
:101300003150D96EDA6ADF30E832E832070B336EDB
:10131000010E346E332A8FEF09F0D8903436332E15
:101320008DEF09F03450FF0A356E3150D96EDA6A0C
:10133000DF50070B020DF3500B0FD96EDA6ADECFC8
:1013400036F0DDCF37F036C0D9FF37C0DAFF355081
:10135000DF16E8EF09F03150D96EDA6ADF30E83293
:10136000E832070B336E010E346E332ABAEF09F000
:10137000D8903436332EB8EF09F03150D96EDA6A8E
:10138000DF50070B020DF3500B0FD96EDA6ADECF78
:1013900035F0DDCF36F035C0D9FF36C0DAFF345036
:1013A000DF12E8EF09F03250336E346A3450000A2D
:1013B000D8B4DDEF09F07CEF09F03350000AD8B45F
:1013C00080EF09F0010AD8B4ABEF09F07CEF09F027
:1013D00038501200000E3B6E010E3A6E3750D8B4F2
:1013E000F4EF09F0F6EF09F0FEEF09F03850D8A459
:1013F000FCEF09F0FEEF09F002EF0AF0000E3A6E82
:1014000041EF0AF037C031F03B0E326E43EC0AF088
:101410003750D96EDA6A020ED926DF50D8A413EFFE
:101420000AF015EF0AF02AEF0AF03B04D8A41BEFEC
:101430000AF01DEF0AF023EF0AF03850D96EDA6A8D
:10144000DF6A41EF0AF03850D96EDA6A010EDF6EBA
:1014500041EF0AF03750D96EDA6A020ED926DE045F
:10146000D8A435EF0AF037EF0AF041EF0AF03B0459
:10147000D8A43DEF0AF03FEF0AF01DEF0AF023EF8A
:101480000AF03A5012003150D8B449EF0AF04BEF4D
:101490000AF063EF0AF03250D8B451EF0AF053EF7C
:1014A0000AF063EF0AF03150D96EDA6ADF30E832C1
:1014B000E832070B336E070E336461EF0AF063EF17
:1014C0000AF065EF0AF08FEF0AF03250D96EDA6A4F
:1014D0003150E16EE26AE730E832E832070B336EF2
:1014E0003150E16EE26AE750070B020DF350010F35
:1014F000E16EE26AE6CF34F0E5CF35F034C0E1FFCB
:1015000035C0E2FFE750366E332A89EF0AF0D890F3
:101510003632332E87EF0AF03650010BDF6E1200A1
:10152000010E3D6E3B50D8A498EF0AF09AEF0AF0F6
:101530009EEF0AF0000E3D6EC6EF0AF047C03EF087
:101540003B50D96EDA6ADF500F0B3C6E3E503C18B0
:10155000F80B3C183E6E3B50D96EDA6ADF38070B49
:101560003C6E3C463C463C463E503C18C70B3C1843
:101570003E6E3E9C3B50D96EDA6ADFAE02D03E8EA4
:1015800001D03E9E3E0E396E65EC0BF03D501200D0
:101590003950D8A4CEEF0AF0D0EF0AF0D2EF0AF01B
:1015A000FCEF0AF046C03BF03950D96EDA6ADF50E2
:1015B0000F0B3A6E3B503A18F80B3A183B6E395005
:1015C000D96EDA6ADF38070B3A6E3A463A463A463F
:1015D0003B503A18C70B3A183B6E3B9C3950D96EBA
:1015E000DA6ADFAE02D03B8E01D03B9E3B0E316EFD
:1015F000010E326E62EC09F012003950D8A403EFEC
:101600000BF005EF0BF007EF0BF031EF0BF045C0DF
:101610003BF03950D96EDA6ADF500F0B3A6E3B500F
:101620003A18F80B3A183B6E3950D96EDA6ADF383F
:10163000070B3A6E3A463A463A463B503A18C70BC1
:101640003A183B6E3B9C3950D96EDA6ADFAE02D055
:101650003B8E01D03B9E3B0E316E000E326E62EC33
:1016600009F01200300E3B6E90EC0AF04A6E2F0E1D
:101670003B6E90EC0AF04A6E2E0E3B6E90EC0AF038
:101680004A6E2D0E3B6E90EC0AF04A6E2C0E3B6EAD
:1016900090EC0AF04A6E2B0E3B6E90EC0AF04A6E0C
:1016A0002A0E3B6E90EC0AF04A6E290E3B6E90ECCF
:1016B0000AF04A6E260E386EC2EC0BF04A6E230E0C
:1016C000386EC2EC0BF04A6E12003950D8B46BEF92
:1016D0000BF06DEF0BF07DEF0BF03950D96EDA6A3D
:1016E000DF30E832E832070B3A6E070E3A647BEFE0
:1016F0000BF07DEF0BF07FEF0BF08EEF0BF039C0AE
:1017000031F0D9EC08F039C031F03950D96EDA6ACD
:10171000000EDFBE010E326E62EC09F01200540EB4
:10172000F66E170EF76E000EF86E00EE01F010EE7A
:1017300030F00900F5CFEEFFE550E150FAE100EEA0
:101740003FF00B0EEE6AE806FDE1000EF86E0001B8
:1017500001EF08F0800F810F820F830F840F890F34
:101760008A0F8B0F8C0F8D0F920F930F940F950F85
:10177000960F01010101CB01014301007262524247
:10178000322212023850D8A4C8EF0BF0CAEF0BF087
:10179000CEEF0BF0000E396ED3EF0BF038C031F006
:0A17A000D9EC08F0396E3950120040
:020000040030CA
:0E000000FF021F1EFF8181FF0FC00FE00F40A7
:00000001FF
